:020000040800F2
:1000000000000220CD170108290C01082B0C010863
:100010002D0C01082F0C0108310C01080000000014
:10002000000000000000000000000000F170000867
:10003000330C01080000000091710008350C010824
:100040001D1801081D1801081D1801081D180108B8
:100050001D1801081D1801081D1801083D0C010894
:10006000490C0108690C01088D0C01081D180108D4
:100070001D1801081D1801081D1801081D18010888
:100080001D1801081D1801081D1801081D18010878
:100090001D1801081D1801081D180108B10C0108E0
:1000A0001D1801081D1801081D1801081D18010858
:1000B0001D1801081D1801081D1801081D18010848
:1000C0001D1801081D1801081D1801081D18010838
:1000D0001D1801081D1801081D1801081D18010828
:1000E000ED0C01081D1801081D1801081D18010854
:1000F0001D1801081D1801081D1801081D18010808
:100100001D1801081D1801081D1801081D180108F7
:100110001D1801081D1801081D180108290D0108E6
:100120001D1801081D1801081D1801081D180108D7
:100130001D180108390D01081D1801081D180108B6
:100140001D1801081D1801081D1801081D180108B7
:100150001D1801081D1801081D1801081D180108A7
:100160001D1801081D1801081D1801081D18010897
:100170001D1801081D1801081D18010800000000C5
:080180001D1801081D180108FB
:1001900010B5054C237833B9044B13B10448AFF3C1
:1001A00000800123237010BD4003002000000000E8
:1001B000682A010808B5034B1BB103490348AFF394
:1001C000008008BD0000000044030020682A0108E8
:1001D00053B94AB9002908BF00281CBF4FF0FF31AE
:1001E0004FF0FF3000F072B9ADF1080C6DE904CEAC
:1001F00000F006F8DDF804E0DDE9022304B0704702
:100200002DE9F047089E04468846002B4BD18A42D0
:10021000154667D9B2FA82F24AB1C2F1200701FA53
:1002200002F320FA07F7954047EA030894404FEAA3
:10023000154E230CB8FBFEF71FFA85FC0EFB178842
:1002400043EA084307FB0CF1994209D9EB1807F17F
:10025000FF3080F01B81994240F21881023F2B440D
:100260005B1AA4B2B3FBFEF00EFB103344EA034466
:1002700000FB0CFCA44509D92C1900F1FF3380F0D8
:100280000781A44540F2048102382C4440EA07402B
:10029000A4EB0C0400271EB1D4400023C6E90043A0
:1002A0003946BDE8F0878B4209D9002E00F0EB807B
:1002B0000027C6E9000138463946BDE8F087B3FAA1
:1002C00083F7002F47D18B4202D3824200F2FA809B
:1002D000841A61EB030301209846002EE0D0C6E9A2
:1002E0000048DDE702B9FFDEB2FA82F2002A40F0F0
:1002F0008F80491B4FEA154E1FFA85F80127B1FB85
:10030000FEFC230C0EFB1C1143EA014308FB0CF11D
:10031000994207D9EB180CF1FF3002D2994200F252
:10032000CD808446591AA3B2B1FBFEF00EFB101427
:1003300043EA044408FB00F8A04507D92C1900F152
:10034000FF3302D2A04500F2B6801846A4EB0804A1
:1003500040EA0C409FE7C7F1200CBB4022FA0CFE9C
:100360004EEA030E01FA07F420FA0CF521FA0CF319
:100370004FEA1E482543B3FBF8F92C0C08FB193350
:100380001FFA8EFA44EA034309FB0AF49C4202FA7C
:1003900007F200FA07F10BD91EEB030309F1FF3056
:1003A00080F087809C4240F28480A9F10209734466
:1003B0001B1BADB2B3FBF8F008FB103345EA034456
:1003C00000FB0AFAA24508D91EEB040400F1FF3332
:1003D0006BD2A24569D90238744440EA0940A0FBB7
:1003E0000289A4EB0A044C45C2464B4654D351D073
:1003F000002E69D0B1EB0A0564EB030404FA0CFC8F
:10040000FD40FC404CEA0505C6E90054002747E7DB
:10041000C2F1200320FA03F7954001FA02F021FA15
:1004200003F34FEA154E3843010CB3FBFEF71FFAF6
:1004300085F80EFB173341EA034107FB08F38B42B3
:1004400004FA02F407D9691807F1FF3C2FD28B4256
:100450002DD9023F2944CB1A81B2B3FBFEF00EFB2B
:10046000103341EA034100FB08F38B4207D96918B6
:1004700000F1FF3C17D28B4215D902382944C91A22
:1004800040EA07473BE73746304609E70746E7E6D5
:100490001846FBE64145ABD2B8EB020A69EB0E0207
:1004A00001381346A4E76046E9E7184695E7674632
:1004B000D1E781467CE702382C4447E7ACF1020CD7
:1004C0002B442FE7384608E73746E9E6704700BF78
:1004D000034613F8012B002AFBD1181A0138704784
:1004E00001F0FF01102A2BDB10F0070F08D010F8E5
:1004F000013B013A8B422DD010F0070F42B3F6D1E9
:10050000F0B441EA012141EA014122F007047FF001
:1005100000070023F0E80256083C85EA010586EA58
:10052000010685FA47F5A3FA87F586FA47F6A5FA94
:1005300087F68EB9EED1F0BC01F0FF0102F00702A0
:1005400032B110F8013B013A83EA010313B1F8D14B
:100550000020704701387047002D06BF354603382C
:10056000073815F0010F07D1013015F4807F02BF65
:10057000013015F4C03F0130F0BC0138704700BFB6
:1005800008B50B4B1A6842F400721A601A6842F4FC
:1005900080621A601A6842F480721A60032000F0C8
:1005A0002FF8002010F0EEFA10F0A2FA002008BD9B
:1005B000003C0240034A1168034B1B780B44136054
:1005C000704700BFF02F012000000020014B186889
:1005D000704700BFF02F012038B50446FFF7F6FF43
:1005E0000546B4F1FF3F02D0044B1B781C44FFF7D3
:1005F000EDFF401BA042FAD338BD00BF0000002031
:10060000074AD36823F4E0631B041B0C43F0BF6369
:1006100043F40033000200F4E0600343D36070470A
:1006200000ED00E030B4164BDB68C3F30223C3F1E6
:100630000704042C28BF04241D1D062D8CBF033B7A
:1006400000234FF0FF3505FA04F421EA0401994034
:1006500005FA03F322EA03031943002809DB090121
:10066000C9B200F1604000F5614080F8001330BC71
:10067000704700F00F000901C9B2024B1954F6E7A8
:1006800000ED00E014ED00E0420900F01F0001233E
:1006900003FA00F0014B43F82200704700E100E04C
:1006A000430900F01F00012202FA00F02033024A41
:1006B00042F82300704700BF00E100E00138B0F1CC
:1006C000807F0AD2064B5860064AF02182F8231038
:1006D0000020986007221A6070470120704700BF11
:1006E00010E000E000ED00E00428044A13680CBFAD
:1006F00043F0040323F004031360704710E000E0AC
:1007000082B0084B1B68084AA2FB03235B0A00FB6C
:1007100003F0019000BF019B5A1E0192002BF9D1FA
:1007200002B07047D8020020D34D621030B583B0BC
:10073000054600230193026841F21804135943F45B
:100740008013135103681B5901930120FFF7D8FF51
:100750002B68019A1A5103B030BD000070B50446F1
:1007600029B14FF40063C3604FF480438360E369B1
:10077000002B0CBF4FF48062002220680568A3683C
:10078000E1680B4343F400733B4929400B43134397
:10079000036023681D680120FFF71EFF23681D60AA
:1007A000236840225A6023685D680120FFF714FF28
:1007B00023685D60236800259D602368DD602268F2
:1007C000936923F0BE031B041B0C43F08003936169
:1007D00023689E690120FFF7FFFE23689E6123685E
:1007E000DD612368DD690120FFF7F6FE2368DD6126
:1007F000226841F218055159204B0B4043F0087311
:1008000043F00403535123685E590120FFF7E4FECF
:1008100023685E51236803F58053194A1A602368E0
:1008200003F580531D680120FFF7D6FE236803F50A
:1008300080531D60A369012B13D06269517913792C
:1008400043EA01230F490B60D17893781B0443EAF4
:10085000016311780B43527843EA02230A4A13607A
:1008600070BD216841F21C028B5843F4803343F081
:1008700040038B50E1E700BF0F8120FF233FDEF8EC
:100880008020C10240800240448002402DE9F041B6
:1008900090F84540012C35D0012480F845400224D1
:1008A00080F84440C16203B388460C4600254FF4EB
:1008B000801E03F1FF3C0CE0AC4586BF04F120072D
:1008C000F760C6F80C800135203402F2F452AB42D6
:1008D0000BD02646C4F800E0A260C769002FEBD118
:1008E000276847F440072760E6E7026841F21003F3
:1008F000D150012380F84430002380F84530184659
:10090000BDE8F0810220FBE72DE9F0418E4690F82A
:10091000451001292FD0012180F84510022180F8CF
:100920004410C0F828E0C3B1F046744600254FF0EB
:10093000004144F2F4575E1E21606760A260AE423F
:1009400086BF04F1200CC4F80CC0C4F80C8001353B
:10095000203402F2F452AB42EED1026841F20C03B1
:1009600042F803E0012380F84430002380F845304A
:100970001846BDE8F0810220FBE7000090F8453002
:10098000012B00F08680012380F84530022380F897
:10099000443009B3C36A1A68002A25DBF0B440F278
:1009A000F452914228D93C4CA4FB0124A40A40F201
:1009B000F45202FB141202B10134012C1CD05CB3BE
:1009C00001F2F451354B03FB0411C1F30C01002378
:1009D00040F2F457661E49E0012380F844300022BB
:1009E00080F8452018467047122380F844300023D1
:1009F00080F84530012070471A6842F040521A6072
:100A0000C36AC1F30C015960C26A136843F0004322
:100A10001360C36ADB68C362036841F214029A5828
:100A200012F0040F08D041F2140204219950026818
:100A300041F204030021D150012380F84430002307
:100A400080F845301846F0BC7047C56A2A6842F005
:100A500080522A6011E0C56A2A6842F000422A608A
:100A6000C26AD268C26201339C42D5D0C56A2A6884
:100A700022F040522A60002BE7D0C26A57609E42A3
:100A8000E9D1C56A2A6842F000522A60C26A516000
:100A9000E1E70220704700BF0BB002AC0CFAFFFF89
:100AA00090F84530012B46D010B4012380F8453032
:100AB000022380F8443005220124836A1968002942
:100AC0002FDB013A2DD0196801F44071B1F5007F98
:100AD00009D0196811F4407F0AD1816B013181631B
:100AE000DB688362E9E703638463DB688362E4E7CE
:100AF0004363826B01328263012A08BF03631A6871
:100B0000C2F30D42043AC263026B92680264DB686E
:100B10008362012380F84430002380F84530184672
:100B200006E0012380F84430002280F84520184672
:100B30005DF8044B7047022070477047704710B54E
:100B40000446036841F214029A5812F0400F11D182
:100B500041F214029B5813F0010F19D1226841F29F
:100B600014034FF48031D1502268D35813F4004F4E
:100B70001BD110BD0FF096F8226841F214034021FA
:100B8000D150012384F84430002384F84530E5E750
:100B9000FFF7D3FF2168012341F214028B5084F840
:100BA0004430002384F84530D8E72046FFF7C6FFDD
:100BB000226841F214034FF40041D150012384F81C
:100BC0004430002384F84530D3E790F84430DBB25A
:100BD000822B32D070B515460446822380F844300B
:100BE000006802698B0103F4F86343F0010302F02B
:100BF0001C021343228AD20292B213430361FFF70D
:100C0000E5FC0646FFF7E2FC801BB0F5803F0CD206
:100C100023681A6912F0010FF4D15B699BB22B6053
:100C2000012384F84430002070BD012384F844304F
:100C3000002384F845300320F6E70220704738B5DA
:100C400090F84430DBB2422B30D00446422380F887
:100C50004430006805698B0103F4F86343F0030333
:100C600005F01C010B43218AC90289B20B4392B2E1
:100C7000426122681361FFF7A9FC0546FFF7A6FC55
:100C8000401BB0F5803F09D223681B6913F0010FA8
:100C9000F4D1012384F84430002038BD012384F8C6
:100CA0004430002384F845300320F6E70220F4E7BF
:100CB0002DE9F04182B000230193002800F00D815E
:100CC000044690F84430002B35D000230093844B29
:100CD0005A6C42F480425A645B6C03F48043009384
:100CE000009B804B5A6822F400025A605A68216ABD
:100CF0000A435A60236803F580531A6842F00102E0
:100D00001A60FFF763FC0546236803F580521268FA
:100D100012F0010F14D0FFF759FC401BB0F5FA7F19
:100D2000F2D9032584F84450002384F8453028463E
:100D300002B0BDE8F08180F845300EF057FFC4E7FF
:100D40001D6925F01C0501F04FF9674B0344674A04
:100D500093425CD845F0080523681D614FF40042BA
:100D600000212046FFF76BFF0546002866D1FF20D3
:100D7000FFF732FC6368002B00F09080FFF726FC41
:100D80008046012741F2883601AA39462046FFF7FE
:100D90001CFFFFF71BFCA0EB0800B04256D8019BDC
:100DA00013F0040FF0D04FF4805200212046FFF7DB
:100DB00046FF002856D1FFF709FC8046012741F283
:100DC000883601AA39462046FFF7FFFEFFF7FEFBF3
:100DD000A0EB0800B0424DD8019B13F0200FF0D0DB
:100DE00001AA10212046FFF7F0FE00284ED1019BFA
:100DF00013F0040F14BF4FF400620022E26013F0FE
:100E0000020F14BF00234FF48043A36055E0384B1A
:100E10000344384A934202D845F00C059CE7364B10
:100E20000344364A934297D9354B0344354A93429B
:100E300094BF45F0040545F010058DE701212046DB
:100E4000FFF78CFC012584F8445070E7012120460F
:100E5000FFF784FC012384F84430002384F84530F4
:100E6000032564E701212046FFF778FC012584F87B
:100E700044505CE701212046FFF770FC012384F811
:100E80004430002384F84530032550E701212046F3
:100E9000FFF764FC012584F8445048E7E268A36842
:100EA0005B0843EAD20292B200212046FFF7C7FE58
:100EB00058B940F6FF70FFF78FFB00212046FFF77F
:100EC0004DFC012384F8443031E701212046FFF72F
:100ED00045FC012584F8445029E7012527E700BF98
:100EE000003802400038014000D3CEFEBFE1E400EC
:100EF00040F1E9FD3F787D0100796CFCFF59620209
:100F0000001F0AFA7FF0FA0290F84530012B3DD01D
:100F100070B582B00446012680F84560022380F84F
:100F20004430002501950268136843F008031360FC
:100F300003681B6801933046FFF7E2FB2368019AC0
:100F40001A6000952268136843F004031360236855
:100F50001B6800933046FFF7D3FB2368009A1A60A2
:100F60002046FFF7E3FB216841F21803CA5842F418
:100F70000052CA502168CA5842F00202CA5084F88E
:100F8000446084F84550284602B070BD0220704786
:100F90002DE9F04F83B000256A4FDFF8B4C16A4EE7
:100FA000DFF8B091DFF8B0A144E0EC0800EB840476
:100FB000D4F820E005F007024FEA820B0F2202FA74
:100FC0000BF22EEA020E0A6902FA0BF242EA0E0254
:100FD00022623BE0002202FA0BF242EA0E029A6021
:100FE00033686FEA08044A6812F4803F0CBF23405C
:100FF00048EA0303336073684A6812F4003F0CBF89
:10100000234048EA03037360B2684B6813F4801FFF
:101010000CBF224048EA0202B260F3684A6812F448
:10102000001F0CBF234048EA0303F3600135102D75
:1010300000F085800123AB400A6803EA02084345BB
:10104000F4D14A6822F01002022AAED004684FEAB6
:10105000450E032202FA0EF2D24302EA040B4C6858
:1010600004F0030404FA0EF444EA0B0404604C6830
:1010700024F01004013C012C12D8846802EA040B0D
:10108000CC6804FA0EF444EA0B048460446824EA51
:10109000030B4C68C4F30013AB4043EA0B034360FB
:1010A000C3681A408B6803FA0EF31343C3604B689E
:1010B00013F0805FBAD0002301937B6C43F480432C
:1010C0007B647B6C03F480430193019B25F0030355
:1010D00003F1804303F59C339C6805F003024FEA5B
:1010E000820B0F2202FA0BF224EA020E60453FF453
:1010F00071AF484517D0504517D0144A904216D0CA
:1011000002F58062904214D002F58062904212D0C3
:1011100002F58062904210D002F5806290420CBFCE
:101120000722082257E7012255E7022253E703224C
:1011300051E704224FE705224DE706224BE703B0B3
:10114000BDE8F08F00380240003C0140000C024036
:1011500000000240000402400008024012B90904E5
:1011600081617047816170477047000008B5054B89
:101170005B69034200D108BD024B5861FFF7F4FFE1
:10118000F9E700BF003C014003685A6912F4806F20
:101190000DD06FF480625A6104230364002303635B
:1011A000202280F83D2080F83C300120704700204C
:1011B00070472DE9F041064690461D46C1F30747AA
:1011C0008CB2012F33680CBF5B699B6934EA03035F
:1011D0000CBF01230023984514D1B5F1FF3FF0D097
:1011E0002DB1FFF7F3F9069BC01AA842E9D90023F5
:1011F0003363202286F83D2086F83E3086F83C3066
:10120000032000E00020BDE8F0812DE9F041044614
:1012100017469846C1F307468DB2012E23680CBFCE
:101220005B699B6935EA030314BF0123002353B3B1
:1012300023685A6912F4806F12D1B7F1FF3FECD0E6
:101240002FB1FFF7C3F9A0EB0800B842E5D900239E
:101250002363202284F83D2084F83C30032013E0EF
:101260001A6842F400721A6023686FF480625A614F
:101270000423236400232363202284F83D2084F880
:101280003C30012000E00020BDE8F08170B504464C
:101290000D46164623685B6913F0800F19D120466E
:1012A000FFF772FFB8B9B5F1FF3FF3D025B1FFF7F3
:1012B0008DF9801BA842EDD9236C43F020032364F1
:1012C00000232363202284F83D2084F83C3003204F
:1012D00000E0002070BD0120FCE770B504460D461B
:1012E000164623685B6913F0040F19D12046FFF7F7
:1012F0004BFFB8B9B5F1FF3FF3D025B1FFF766F961
:10130000801BA842EDD9236C43F020032364002303
:101310002363202284F83D2084F83C30032000E041
:10132000002070BD0120FCE770B505460C4616464E
:101330002B685A6912F0400F22D15A6912F0100F2F
:1013400011D124B1FFF742F9801BA042F0D92B6CD8
:1013500043F020032B64202385F83D30002385F8DB
:101360003C30032070BD6FF010025A6100232B64E3
:101370002B63202285F83D2085F83C300120F1E7E1
:101380000020EFE7002872D010B5044690F83D30F9
:10139000002B41D0242384F83D302268136823F0C9
:1013A0000103136000F026FE324BA3FB00239B0CCD
:1013B000226853606168304A914232D80133226812
:1013C000136263682C4A934235D85B00B0FBF3F09C
:1013D000C0F30B03032B98BF04202368D861226855
:1013E000E369216A0B43136022682369E1680B43B8
:1013F000936022686369A1690B43D3602268136814
:1014000043F00103136000202064202384F83D3062
:10141000206384F83E0010BD80F83C300FF0F4F9F2
:10142000B8E74FF4967202FB03F3144AA2FB0323BE
:101430009B090133C3E7A26842B903EB4303B0FB46
:10144000F3F0C0F30B036BB90120C6E703EB830392
:1014500003EB8303B0FBF3F0C0F30B032BB140F4B9
:101460004040BAE740F40040B7E70120B5E701206B
:10147000704700BF83DE1B43A0860100D34D62107E
:101480002DE9F04184B004460E4690461F46FFF712
:101490009DF894F83D30DBB2202B04D00226304674
:1014A00004B0BDE8F081054600901923012272497D
:1014B0002046FFF77EFE002840F0CD8094F83C30B7
:1014C000012B00F0CA80012384F83C3023681A689D
:1014D00012F0010F03D11A6842F001021A6022686B
:1014E000136823F400631360212384F83D30102334
:1014F00084F83E3000232364C4F824806785A3F574
:101500008033E362638D2385E36A042B0DD0012BC6
:101510000BD013F5803F08D0236B122B0AD1226821
:10152000136843F48073136004E02268136843F483
:101530008073136000950A9B00224FF00111204632
:10154000FFF737FE88B92369B3F5804F15D12368BB
:1015500006F0FE061E612B460A9A48492046FFF710
:1015600054FE064600287ED0236C236C042B18D131
:10157000002384F83C30012691E72268F31103F040
:10158000060343F0F00313612B460A9A3C492046B8
:10159000FFF73BFE08B1236CE7E72368F6B21E6154
:1015A000D9E7002384F83C30032678E7236C042B2A
:1015B00055D12268136843F40073136001266EE767
:1015C0002A460A992046FFF788FE00282BD1238D52
:1015D000002B32D02A460A992046FFF757FE0028F2
:1015E000E4D1636A5A1C626222681B781361638DBE
:1015F000013B9BB26385238D013B9BB2238522680F
:10160000516911F0040FDBD0002BD9D0636A591C4B
:1016100061621B781361638D013B9BB26385238DEF
:10162000013B2385CCE7236C042B1AD12268136875
:1016300043F400731360012631E72268136843F412
:1016400000731360202384F83D30002384F83E307B
:1016500084F83C3023E7022621E702261FE7032611
:101660001DE703261BE70023039323685A690392AF
:101670009B690393039BAAE702001000020001008C
:10168000080001002DE9F04188B004460E4690465E
:101690001F46FEF79BFF94F83D30DBB2202B04D0B1
:1016A0000226304608B0BDE8F081054600901923B7
:1016B00001227B492046FFF77CFD002840F0A281F3
:1016C00094F83C30012B00F09F81012384F83C30DA
:1016D00023681A6812F0010F03D11A6842F0010260
:1016E0001A602268136823F400631360222384F8CD
:1016F0003D30102384F83E3000232364C4F8248056
:101700006785A3F58033E362638D2385E26A2168F0
:101710000B6843F480630B60042A0DD0012A0BD0C0
:1017200012F5803F08D0236B112B0AD12268136871
:1017300043F48073136004E02268136843F48073F9
:10174000136000950E9B00224FF001112046FFF719
:1017500030FD18BB2369B3F5804F10D1236846F0E4
:101760000106F6B21E612B460E9A4E492046FFF73F
:101770004CFD0646002800F04F81236C0EE0F71167
:1017800007F00607236847F0F0021A612B460E9A0D
:1017900045492046FFF739FD40B1236C236C042BEB
:1017A0002AD1002384F83C3001267AE72368F6B278
:1017B0001E612B460E9A3B492046FFF726FD08B1D5
:1017C000236CEBE700220792236859690791996916
:1017D00007910799196841F48071196000950E9B73
:1017E0004FF001112046FFF7E4FC0028D6D1236812
:1017F00047F0F1071F61B6E7002384F83C30032669
:101800004FE70023039323685A6903929A6903926E
:10181000039A1A6842F400721A60DFF89080002779
:101820006FE02268136823F480631360002304933D
:1018300023685A6904929A690492049A1A6842F4D5
:1018400000721A60E9E72268136823F4806313606A
:101850002268136843F40063136000230593236830
:101860005A6905929B690593059BD6E72A460E990E
:101870002046FFF759FD68B923681A69636A591C45
:1018800061621A70238D013B2385638D013B9BB2FE
:10189000638536E0236C202B0CBF0326012600E76E
:1018A0000200100002000100080001000400010015
:1018B00000950E9B3A4641462046FFF77AFC0028E9
:1018C00040F0A4802268136843F400731360236817
:1018D0001A69636A591C61621A70238D013B238562
:1018E000638D013B9BB2638523681A69636A591C47
:1018F00061621A70238D013B2385638D013B9BB28E
:101900006385238D002B74D0032B47D8012BADD0DA
:10191000022BCDD000950E9B3A4641462046FFF75C
:1019200048FC002874D12268136823F48063136094
:1019300023681A69636A591C61621A70238D013B1E
:101940002385638D013B9BB2638500950E9B3A46D0
:1019500041462046FFF72DFC00285BD12268136822
:1019600043F40073136023681A69636A591C616247
:101970001A70238D013B2385638D013B9BB26385E8
:1019800023681A69636A591C61621A70238D013BCE
:101990002385638D013B9BB26385B2E72A460E998E
:1019A0002046FFF7C1FCF0B923681A69636A591C25
:1019B00061621A70238D013B2385638D013B9BB2CD
:1019C000638523685A6912F0040F9AD01A69636A12
:1019D000591C61621A70238D013B2385638D013B85
:1019E0009BB263858DE7236C202B0CBF0326012659
:1019F00057E6202384F83D30002384F83E3084F8F5
:101A00003C304EE602264CE602264AE6032648E62D
:101A1000032646E6032644E6238D002B3FF4F1AE71
:101A2000012B3FF4FEAE022B3FF40DAF226813688A
:101A300043F4806313600023069323685A69069277
:101A40009B690693069BE8E6064A136923F00403A4
:101A50001361012903D040BF20BF20BF704730BFB2
:101A6000704700BF00ED00E0002800F0BF812DE9C5
:101A7000F04182B00446036813F0010F3CD0A94B3B
:101A80009B6803F00C03042B2DD0A64B9B6803F03E
:101A90000C03082B22D06368B3F5803F50D0B3F518
:101AA000A02F53D09F4B1A6822F480321A601A6814
:101AB00022F480221A606368002B51D0FEF786FD65
:101AC0000646984D2B6813F4003F15D1FEF77EFDB6
:101AD000801BB0F5967FF5D903208CE1914B5B68B4
:101AE00013F4800FD7D08F4B1B6813F4003F03D043
:101AF0006368002B00F07C81236813F0020F56D03E
:101B0000884B9B6813F00C0F3FD0864B9B6803F00B
:101B10000C03082B34D0E368002B69D0824B0122E0
:101B20001A60FEF753FD06467E4D2B6813F0020F38
:101B300055D1FEF74BFD801B0228F6D903205AE150
:101B4000784A136843F480331360B4E7754B1A681E
:101B500042F480221A601A6842F480321A60AAE7BE
:101B6000FEF734FD06466F4D2B6813F4003FC3D0DB
:101B7000FEF72CFD801BB0F5967FF5D903203AE1E6
:101B8000684B5B6813F4800FC5D1664B1B6813F07C
:101B9000020F04D0E368012B01D001202BE1614A40
:101BA0001368216923F0F80343EAC1031360236833
:101BB00013F0080F40D0636963B35C4B01221A60D5
:101BC000FEF704FD0646574D6B6F13F0020F33D13D
:101BD000FEF7FCFC801B0228F6D903200BE1514ADA
:101BE0001368216923F0F80343EAC1031360DEE7B9
:101BF0004D4B00221A60FEF7E9FC0646494D2B6862
:101C000013F0020FD3D0FEF7E1FC801B0228F6D9B7
:101C10000320F0E0454B00221A60FEF7D7FC064691
:101C2000404D6B6F13F0020F06D0FEF7CFFC801B08
:101C30000228F6D90320DEE0236813F0040F7AD0DF
:101C4000384B1B6C13F0805F34D100230193354B6C
:101C50001A6C42F080521A641B6C03F0805301939B
:101C6000019B0125324B1B6813F4807F24D0A368AD
:101C7000012B35D0052B39D02A4B1A6F22F00102E7
:101C80001A671A6F22F004021A67A368002B37D074
:101C9000FEF79CFC8046234E41F28837336F13F0E9
:101CA000020F47D1FEF792FCA0EB0800B842F5D92D
:101CB0000320A0E00025D5E71D4A136843F4807394
:101CC0001360FEF783FC0746194E336813F4807FD8
:101CD000CDD1FEF77BFCC01B0228F6D903208AE099
:101CE000104A136F43F001031367CEE70D4B1A6FD1
:101CF00042F004021A671A6F42F001021A67C4E741
:101D0000FEF764FC8046074E41F28837336F13F0CC
:101D1000020F0FD0FEF75AFCA0EB0800B842F5D92D
:101D2000032068E00038024000004742800E47422E
:101D300000700040E5B9A369002B5BD0304A92687F
:101D400002F00C02082A59D0022B17D02D4B00228A
:101D50001A60FEF73BFC0546294C236813F0007F10
:101D600042D0FEF733FC401B0228F6D9032042E0A4
:101D7000234A136C23F080531364DCE7214B0022C9
:101D80001A60FEF723FC06461D4D2B6813F0007FFA
:101D900006D0FEF71BFC801B0228F6D903202AE0A0
:101DA000E369226A1343626A43EA8213E26A43EAFE
:101DB0000263A26A5208013A43EA0243104A53609E
:101DC000104B01221A60FEF701FC05460C4C2368FB
:101DD00013F0007F06D1FEF7F9FB401B0228F6D96D
:101DE000032008E0002006E0002004E00120704706
:101DF000012000E0002002B0BDE8F0810120FAE7F8
:101E000000380240600047421D4B9B6803F00C0302
:101E1000082B32D12DE9F04B194B5A6802F03F02E2
:101E20005B68174B5B68C3F388131E4600275C0191
:101E30000025E41A65EB0705A90141EA9461A001B8
:101E4000001B61EB0501CB0043EA5073C400A019ED
:101E500043EB07018B0243EA905384022046194664
:101E60000023FEF7B5F9064B5B68C3F3014301336A
:101E70005B00B0FBF3F0BDE8F08B0248704700BF99
:101E8000003802400024F400002800F0A0802DE972
:101E9000F0410446504B1B6803F00F038B420AD2FB
:101EA000CBB24D4A1370136803F00F038B4202D07C
:101EB0000120BDE8F081236813F0020F17D013F062
:101EC000040F04D0454A936843F4E05393602368B9
:101ED00013F0080F04D0414A936843F460439360C1
:101EE0003E4A936823F0F003A068034393600D46D5
:101EF000236813F0010F33D06268012A22D0931EA9
:101F0000012B26D9354B1B6813F0020F61D03349E2
:101F10008B6823F0030313438B60FEF757FB804667
:101F20002E4E41F28837B36803F00C036268B3EBBE
:101F3000820F15D0FEF74AFBA0EB0800B842F2D999
:101F40000320B6E7254B1B6813F4003FDFD10120C7
:101F5000AFE7224B1B6813F0007FD8D10120A8E720
:101F60001D4B1B6803F00F03AB4209D9EAB21A4BB1
:101F70001A701B6803F00F03AB4201D0012098E7F1
:101F8000236813F0040F06D0144A936823F4E05337
:101F9000E1680B439360236813F0080F07D00F4AE2
:101FA0009368216923F4604343EAC1039360FFF718
:101FB0002BFF0A4B9B68C3F30313094AD35CD84039
:101FC000084B186000200EF0DDFD002071E70120B5
:101FD000704701206DE700BF003C0240003802401E
:101FE000682C0108D8020020014B1868704700BF18
:101FF000D8020020044B9B68C3F38223034AD35CBE
:10200000034A1068D840704700380240782C010815
:10201000D8020020044B9B68C3F34233034AD35CCD
:10202000034A1068D840704700380240782C0108F5
:10203000D80200200F2303600B4B9A6802F00302C2
:1020400042609A6802F0F00282609A6802F4E052FC
:10205000C2609B68DB0803F4E0530361034B1B6819
:1020600003F00F030B60704700380240003C024051
:1020700070B4036A23F001030362036A446882694F
:1020800022F073020D682A4323F002038D682B436C
:102090000C4DA84203D005F58065A8420BD123F072
:1020A0000803CD682B4323F0040324F440744D69E6
:1020B0008E6935432C43446082614A6842630362FF
:1020C00070BC70470000014070B4036A23F4807351
:1020D0000362036A4468C26922F073020D682A43EE
:1020E00023F400738D6843EA05230E4DA84203D004
:1020F00005F58065A8420DD123F40063CD6843EA5D
:10210000052323F4806324F440544D698E693543DC
:1021100044EA05144460C2614A68C263036270BC49
:10212000704700BF0000014030B4036A23F48053BD
:102130000362036A4468C26922F4E6420D6842EA17
:10214000052223F400538D6843EA0533094DA84264
:1021500003D005F58065A84204D124F480444D697C
:1021600044EA85144460C2614A680264036230BC78
:10217000704700BF000001400268D36843F00103CC
:10218000D3600268136843F00103136000207047B6
:1021900090F83830012B00F0CB8070B4012380F828
:1021A0003830022380F839300268936823F47F4383
:1021B00023F0770393600B68402B00F08F8021D9C8
:1021C000702B5FD038D8502B6ED0602B51D1036864
:1021D0004D68CE681C6A24F010041C6299691A6A62
:1021E00021F4704141EA063122F0A00242EA0512D0
:1021F00099611A620268936823F0700343F06703E1
:10220000936036E0102B00F083800CD9202B00F077
:102210008780302B2DD10268936823F0700343F040
:102220003703936025E023BB0268936823F07003B3
:1022300043F0070393601CE0B3F5805F14D0B3F55F
:10224000005F16D10468A26822F47F428B684D6853
:102250002B43C96843EA01231343A36002689368D0
:1022600043F48043936004E00268936823F007031B
:102270009360012380F83930002380F83830184605
:1022800070BC70470468A26822F47F428B684D6876
:102290002B43C96843EA01231343A3600268936890
:1022A00043F077039360E4E703684C68CE68196AEB
:1022B0001D6A25F001051D629A6922F0F00242EACA
:1022C000061221F00A0121439A611962026893689B
:1022D00023F0700343F057039360CAE703684C6828
:1022E000CE68196A1D6A25F001051D629A6922F0FF
:1022F000F00242EA061221F00A0121439A611962B2
:102300000268936823F0700343F047039360B0E7DB
:102310000268936823F0700343F017039360A8E703
:102320000268936823F0700343F027039360A0E7EB
:1023300002207047704770477047704710B50446D9
:1023400003681A6912F0020F11D0DA6812F0020F56
:102350000DD06FF002021A610123037603689B69B6
:1023600013F0030F70D0FFF7E6FF002323762368F6
:102370001A6912F0040F12D0DA6812F0040F0ED0AE
:102380006FF004021A610223237623689B6913F419
:10239000407F5FD02046FFF7CEFF002323762368DF
:1023A0001A6912F0080F12D0DA6812F0080F0ED076
:1023B0006FF008021A61042323762368DB6913F0A7
:1023C000030F4ED02046FFF7B6FF00232376236885
:1023D0001A6912F0100F12D0DA6812F0100F0ED036
:1023E0006FF010021A61082323762368DB6913F467
:1023F000407F3DD02046FFF79EFF002323762368D1
:102400001A6912F0010F03D0DA6812F0010F36D109
:1024100023681A6912F0800F03D0DA6812F0800F77
:1024200034D123681A6912F0400F03D0DA6812F031
:10243000400F32D123681A6912F0200F03D0DA68F6
:1024400012F0200F30D110BDFFF774FF2046FFF7C8
:1024500073FF8AE72046FFF76DFF2046FFF76CFF0A
:102460009BE72046FFF766FF2046FFF765FFACE7D6
:102470002046FFF75FFF2046FFF75EFFBDE76FF0E6
:1024800001021A6120460EF025FBC1E76FF08002C1
:102490001A61204600F005FAC3E76FF040021A61A6
:1024A0002046FFF74AFFC5E76FF020021A61204679
:1024B00000F0F6F9C7E700000368384A904249D0B7
:1024C000B0F1804F2DD0A2F57C4290422ED002F583
:1024D000806290422FD002F58062904230D002F5A7
:1024E0007842904231D002F5705290424BD002F5C2
:1024F0008062904247D002F58062904243D0A2F5BC
:10250000983290423FD002F5806290423BD002F573
:102510008062904237D003608B68C3620B6883622D
:102520002EE023F070034A68134317E023F0700392
:102530004A68134312E023F070034A6813430DE026
:1025400023F070034A68134308E023F070034A68DD
:10255000134303E023F070034A68134323F44073EA
:10256000CA68134303608B68C3620B6883620B4BBA
:10257000984203D003F58063984201D10B6903634D
:1025800001234361704723F44073CA681343036017
:102590008B68C3620B688362F2E700BF00000140F2
:1025A000A8B110B5044690F839305BB1022384F825
:1025B0003930211D2068FFF77FFF012384F839306F
:1025C000002010BD80F838300EF090FCEEE70120BE
:1025D0007047A8B110B5044690F839305BB10223BA
:1025E00084F83930211D2068FFF766FF012384F845
:1025F0003930002010BD80F838300EF04FFCEEE787
:102600000120704770B4036A23F010030362036A69
:102610004468826922F4E6420D6842EA052223F00A
:1026200020038D6843EA05130D4DA84203D005F53C
:102630008065A8420DD123F08003CD6843EA0513DD
:1026400023F0400324F440644D698E69354344EA25
:102650008504446082614A688263036270BC70478B
:102660000000014038B590F83830012B66D00D4697
:102670000446012380F83830022380F839300C2AD0
:102680001AD8DFE802F00719191920191919341995
:10269000191947000068FFF7EBFC2268936943F0C3
:1026A000080393612268936923F00403936122680D
:1026B000936929690B439361012384F83930002021
:1026C00084F8380038BD0068FFF79CFF22689369E2
:1026D00043F4006393612268936923F480639361F8
:1026E00022689369296943EA01239361E4E700685A
:1026F000FFF7EAFC2268D36943F00803D36122683C
:10270000D36923F00403D3612268D36929690B4399
:10271000D361D1E70068FFF707FD2268D36943F46E
:102720000063D3612268D36923F48063D361226894
:10273000D369296943EA0123D361BDE70220C1E7D8
:1027400010B4036A01248C4023EA04030362036A81
:102750008A401A4302625DF8044B704710B5044684
:1027600001220068FFF7ECFF2368094A934203D077
:1027700002F58062934203D15A6C42F400425A64DB
:102780002268136843F001031360002010BD00BFEE
:102790000000014010B5044600220068FFF7D0FF9A
:1027A0002368154A934217D002F58062934213D0F2
:1027B0002368196A41F21112114208D1196A40F2D4
:1027C0004442114203D11A6822F001021A60012327
:1027D00084F83930002010BD196A41F211121142FB
:1027E000E6D1196A40F244421142E1D15A6C22F416
:1027F00000425A64DCE700BF0000014090F8383026
:10280000012B22D030B4012280F83820022380F836
:1028100039300468636823F0700363600468636898
:102820000D682B4363600468A36823F08003A360F2
:102830000468A36849680B43A36080F8392000232B
:1028400080F83830184630BC70470220704790F846
:102850003830012B22D0012380F83830CB6823F4A4
:1028600040738A68134323F480634A68134323F454
:1028700000630A68134323F480530A69134323F463
:1028800000534A6913438A6923F44043134302689F
:102890005364002380F83830184670470220704790
:1028A000704770472DE9F84304460268136923F422
:1028B0004053C1680B4313610168CA6822F4164291
:1028C00022F00C0283680069034360690343E069F6
:1028D00003431343CB602268536923F44073A16917
:1028E0000B435361E369B3F5004F5ED02368B34AED
:1028F000934200F00C8102F58062934200F0078160
:10290000FFF778FB00EB800000EB800063689B0022
:10291000B0FBF3F3AA4FA7FB03235B091D01FFF7ED
:1029200069FB00EB800000EB800063689B00B0FB5C
:10293000F3F6FFF75FFB00EB800000EB80006368BD
:102940009B00B0FBF3F3A7FB03235B094FF0640983
:1029500009FB13631B013233A7FB03235B0903F05D
:10296000F006FFF747FB00EB800000EB8000636898
:102970009B00B0FBF3F8FFF73DFB226800EB800003
:1029800000EB800063689B00B0FBF3F3A7FB03132D
:102990005B0909FB13831B013233A7FB0313C3F34A
:1029A000431333432B44936005E12368834A9342E6
:1029B00058D002F58062934254D0FFF71BFB00EB26
:1029C000800000EB800063685B00B0FBF3F37C4F9A
:1029D000A7FB03235B091E01FFF70CFB00EB800044
:1029E00000EB800063685B00B0FBF3F5FFF702FBD0
:1029F00000EB800000EB800063685B00B0FBF3F34A
:102A0000A7FB03235B094FF0640909FB1353DB00A9
:102A10003233A7FB03231B0903F4F875FFF7EAFA27
:102A200000EB800000EB800063685B00B0FBF3F814
:102A3000FFF7E0FA226800EB800000EB800063689B
:102A40005B00B0FBF3F3A7FB03135B0909FB1383E4
:102A5000DB003233A7FB0313C3F3421333442B448D
:102A60009360A8E0FFF7D6FA00EB800000EB80004F
:102A700063685B00B0FBF3F3514FA7FB03235B09D3
:102A80001E01FFF7C7FA00EB800000EB80006368CF
:102A90005B00B0FBF3F5FFF7BDFA00EB800000EB45
:102AA000800063685B00B0FBF3F3A7FB03235B09C3
:102AB0004FF0640909FB1353DB003233A7FB0323F8
:102AC0001B0903F4F875FFF7A5FA00EB800000EB93
:102AD000800063685B00B0FBF3F8FFF79BFA2268A5
:102AE00000EB800000EB800063685B00B0FBF3F359
:102AF000A7FB03135B0909FB1383DB003233A7FB3E
:102B00000313C3F3421333442B44936053E0FFF7A2
:102B100081FA00EB800000EB800063689B00B0FB53
:102B2000F3F3274FA7FB03235B091D01FFF772FA9D
:102B300000EB800000EB800063689B00B0FBF3F6C5
:102B4000FFF768FA00EB800000EB800063689B00F1
:102B5000B0FBF3F3A7FB03235B094FF0640909FB08
:102B600013631B013233A7FB03235B0903F0F00659
:102B7000FFF750FA00EB800000EB800063689B00D9
:102B8000B0FBF3F8FFF746FA226800EB800000EB99
:102B9000800063689B00B0FBF3F3A7FB03135B09A2
:102BA00009FB13831B013233A7FB0313C3F3431346
:102BB00033432B449360BDE8F88300BF001001400D
:102BC0001F85EB512DE9F04107460E461546984604
:102BD000069C3A68136836EA03030CBF01230023FE
:102BE000AB421DD1B4F1FF3FF4D02CB1FDF7EEFCA8
:102BF000A0EB0800A042ECD93A68D36823F4D07364
:102C0000D3603A68536923F001035361202387F8A6
:102C1000393087F83A30002387F83830032000E055
:102C20000020BDE8F08158B310B5044690F8393063
:102C30000BB3242384F839302268D36823F400537B
:102C4000D3602046FFF72EFE2268136923F49043D9
:102C500013612268536923F02A0353612268D36801
:102C600043F40053D3600020E063202384F839301C
:102C700084F83A3010BD80F838300EF037FAD8E7D3
:102C8000012070472DE9F04383B01E4690F839309B
:102C9000DBB2202B59D104460D469046002959D06D
:102CA000002A59D090F83830012B57D0012380F8F2
:102CB00038300023C363212380F83930FDF786FCC8
:102CC0000746A4F82480A4F826804FF000094FF0AE
:102CD000800810E000963B464A4641462046FFF7F2
:102CE00071FF00283CD122682B88C3F3080353608E
:102CF0002369C3B90235E38C9BB2B3B1E38C013BCA
:102D00009BB2E384A368B3F5805FE3D000963B46B3
:102D10004A4641462046FFF755FF18BB23682A78EC
:102D20005A600135E7E70135E5E700963B460022AA
:102D300040212046FFF746FF0346A8B9202284F829
:102D40003920002284F8382000E00223184603B01E
:102D5000BDE8F0830123F9E70123F7E70223F5E754
:102D60000323F3E70323F1E70323EFE708B54A085A
:102D70008A2102F007FE08BD70B582B00446002229
:102D8000BF2102F0FFFD50B9C0250DF10702294611
:102D9000204602F019FE9DF80730002BF5D12046A1
:102DA00002F092FE0122BF21204602F0EBFD054613
:102DB000A8B9C0260DF107023146204602F004FEF4
:102DC00005469DF80730002BF4D0204602F07CFE2B
:102DD00015B9002384F83231284602B070BD204670
:102DE00002F072FEF8E715290FD8DFE801F00B0BAF
:102DF0000E0B0E0E0E0E0E0E0E0E0E0E0E0E0E0EF6
:102E00000E0E0B0B0174002070476FF00700704727
:102E100010B50C460A46092102F0D6FD024618B943
:102E2000237803F001032370104610BD08B502F0AB
:102E300008F908BD08B501F04AFF08BD08B502F061
:102E4000E4F808BDF0B583B004460E46174602AA62
:102E5000002302F8013D012102F0B6FD054688BBC2
:102E60009DF80730012F06D0042E3DD8DFE806F08C
:102E7000192D30333600042E33D8DFE806F0030670
:102E8000090C0F0043F010060DE043F028060AE09D
:102E900043F0040607E043F0400604E043F08006F8
:102EA00001E003F0EF06B3420CD032460121204688
:102EB00002F068FD054628B984F830616169204652
:102EC000FFF7B4FF284603B0F0BD03F0D706EAE7EA
:102ED00003F0FB06E7E703F0BF06E4E703F07F0635
:102EE000E1E76FF00305EDE76FF00305EAE704297A
:102EF00004D8DFE801F0080D12171C0000221A7038
:102F00006FF003007047C2F300121A700020704780
:102F1000C2F3C0021A7000207047C2F380021A7018
:102F200000207047C2F380121A7000207047D20947
:102F30001A700020704730B583B004460D4602AACF
:102F4000002302F8013D012102F03EFD034618B1C5
:102F50004BB3184603B030BD2B469DF80720002127
:102F60002046FFF7C4FF03460028F2D1AB1C9DF8B2
:102F7000072001212046FFF7BAFF03460028E8D1C9
:102F80006B1C9DF8072002212046FFF7B0FF034687
:102F90000028DED1EB1C9DF8072003212046FFF717
:102FA000A6FF0346D4E72B1D9DF8072004212046E9
:102FB000FFF79DFF0346CCE730B583B004460D46CE
:102FC0000DF10602F82102F035FD034610B1184656
:102FD00003B030BD6A460421204602F04DFD034691
:102FE0000028F4D1BDF806201AB10099B1FBF2F225
:102FF0002A602A68A261EAE7037F0B70002070470D
:1030000030B583B004460D460DF10602202102F0D2
:1030100011FD024638B9BDF806303BB1DB002B602C
:10302000236201232377104603B030BD236A2B604F
:1030300000232377F7E705293DD8F8B57AB100EBEF
:103040008103D3F834C00023012716460C460546F9
:10305000052933D8DFE801F0080B181B1E2417469A
:1030600001234FF0000CF0E780F8287005E0CCF366
:103070004F22442102F096FC28B9BEB12819012341
:1030800080F828300020F8BD80F82A70F5E780F835
:103090002B70F2E75B00FE22602102F0B0FCEBE750
:1030A0001B01EF22602102F0AAFCE5E72C4400207E
:1030B00084F82800E7E76FF0030070476FF0030023
:1030C000E1E7052905D8084490F82830137000205E
:1030D0007047002313706FF003007047431893F894
:1030E000283053B170B516460D460446052920D840
:1030F000DFE801F0080A1517191900EB8100426397
:1031000000207047626305E0C2F34F22442102F0C1
:1031100049FC18B904EB85004663002070BDE263EA
:10312000F8E72264F6E7C2F34F22642102F03AFC8A
:10313000EFE76FF00300F1E730B583B004461546C2
:10314000052932D8DFE801F003091B1D1F1F436B5F
:103150002B600023184603B030BD0DF10602442158
:1031600002F068FC03460028F4D1BDF806205102A5
:10317000AAB12960A163012284F82920EAE7C36B80
:10318000E6E7036CE4E70DF10602642102F052FC6D
:1031900003460028DED1BDF806305B02D8E7A26BFB
:1031A0002A60002284F82920D4E76FF00303D1E7D6
:1031B00030B583B004460D460DF10702012102F03F
:1031C00003FC034660B99DF8072084F8302112F013
:1031D000800F14BF012200222A702A7884F84C2024
:1031E000184603B030BD2DE9F84305460F46037C71
:1031F00001F8083BFFF7E0FEA0BB00233B7307F19B
:1032000010012846FFF7FCFE034640BB07F11401FE
:10321000284600F00EFD034608BB07F1240605F121
:10322000280907F1180800243246A1B22846FFF702
:1032300083FF034698B919F8013B08F8013B0134B4
:103240000436062CF0D107F13C012846FFF7B0FF09
:10325000034620B9391D284601F067FF034618468A
:10326000BDE8F88303460028F9D1ECE7F0B593B048
:1032700005460022882102F085FB002385F8F03006
:103280004FF47A72A5F852214FF4C872A5F8542170
:10329000664AC5F85821664AC5F8D4202B6202A9AF
:1032A0002846FFF7A0FF044688B900238DF80830B0
:1032B0008DF8093005F1100602AF0FCF0FC60FCF02
:1032C0000FC60FCF0FC697E80F0086E80F006423E4
:1032D000A5F834314FF46173A5F836314FF4FA7321
:1032E000A5F838314FF42063A5F83C31012685F864
:1032F000506132468021284602F044FB07463246A0
:10330000FF21284602F03EFB3843044364B200220A
:103310001146284602F036FB044364B20DF1070261
:103320009121284602F050FB044364B29DF8073017
:1033300085F83A3132460021284602F023FB044347
:1033400064B20022FF21284602F01CFB044364B251
:1033500000228021284602F015FB204343B263BBC4
:10336000012200212846FFF766FE03460124264677
:103370001BBB3246A1B22846FFF75DFE034601346F
:10338000062CF5D198B173B373B9FF2285F83021BB
:103390000121284602F0F6FA0346012285F832217F
:1033A00013B9002285F81521184613B0F0BD00228C
:1033B00002212846FFF73FFE0346DBB90022032126
:1033C0002846FFF738FE0346E8B9002204212846C4
:1033D000FFF731FE0346F8B9002205212846FFF722
:1033E0002AFE0346CFE74FF4901200212846FFF74C
:1033F00075FE0346002BD3D14FF4804201212846AD
:10340000FFF76CFE0346002BCED14FF40C120221C5
:103410002846FFF763FE0346002BC5D10022032197
:103420002846FFF75BFE0346AEE700BF856B010051
:10343000A470090008B5012300F05AFE08BD000081
:10344000F0B58FB005460C460C230AAA142102F0F1
:103450007DFA8446002877D10023A37523609DF868
:1034600032709DF8330000EB072087B263609DF84F
:103470002E309DF82F2002EB032292B25202E2601E
:103480009DF830109DF8313003EB01239BB25B02B5
:1034900023619DF82A109DF82B3003EB01239BB28A
:1034A000A3829DF82810B5F8520195F83161B0F566
:1034B0007A7F10D007FB00F000F5FA70304F87FBE1
:1034C00000C7C017C0EBA7102F6A95F81CC0BCF14D
:1034D000000F3CD187B2002E4AD0B8082081B80135
:1034E000E0750DF1370001900094284602F0B0F825
:1034F000844648BB9DF837E084F818E003AE05F138
:1035000050070FCF0FC697E8070086E80700278906
:10351000E37D6689E0682169A28A64680494ADF855
:103520001470ADF8166006900791ADF820208DF864
:1035300023308DF824E005F1500403AD0FCD0FC406
:1035400095E8070084E8070060460FB0F0BDBFB201
:1035500003FB07F73F12BA4207D080B202FB00F02C
:10356000D71BB0FBF7F087B2B5E72EB948F6E027D6
:1035700027810020E075B4E742F2B827ADE700BF2D
:10358000D34D621038B504461D46C2F34B420E219E
:1035900002F008FA034608B1184638BDC5F34B429D
:1035A0000C21204602F0FEF90346F5E770B582B023
:1035B000064614461D460DF106020E2102F03AFAA7
:1035C000BDF806200B4B03EA42432360034610B1CB
:1035D000184602B070BD0DF106020C21304602F013
:1035E00029FA0346BDF80610024A02EA41422A605F
:1035F000EEE700BF0000FE1F90F8DA30013BDBB2BF
:10360000022B01D90020704730B583B00C46054627
:103610006B4601AA0121FFF7C9FF019BB3F57F0F9C
:1036200003D8009BB3F57F0F1CD9D8B9E4B90422A5
:10363000FF21284602F0A6F9044600227021284600
:1036400002F0A0F9044364B20022FF21284602F0F0
:1036500099F9044364B200228021284602F092F9CD
:10366000204340B203B030BD0249284601F0C7FDF7
:10367000F8E700BF0800002070B582B00446057C62
:103680000122802102F07EF90122FF21204602F072
:1036900079F900221146204602F074F994F83A2193
:1036A0009121204602F06EF901220021204602F00D
:1036B00069F90022FF21204602F064F900228021EE
:1036C000204602F05FF9012D30D035B1032D3FD0F7
:1036D0006FF00703184602B070BD0122002120469A
:1036E00002F050F901238DF8073003460028F1D18C
:1036F00000252E4607E035B10DF107023146204680
:1037000002F062F9034601359DF8072012F0010F1F
:1037100006D02BB9B5F5FA6FEDD16FF00603D9E7F6
:10372000B5F5FA6F28BF6FF00603D3E758B1022250
:103730000021204602F026F903460028CAD10422BF
:1037400084F83221C6E701212046FFF755FFEEE756
:1037500058B104220021204602F014F90346002843
:10376000B8D1042284F83221B4E701212046FFF7C2
:1037700043FFEEE738B50446057C4DB100F027FE67
:10378000034648B945B9032384F83231002303E0E6
:10379000FFF772FF034608B1184638BD204600F017
:1037A00016FE03460028EED0F6E710B504460022C8
:1037B000114602F0E7F80122FF21204602F0E2F86C
:1037C00000221146204602F0DDF800229121204619
:1037D00002F0D8F801220021204602F0D3F800229E
:1037E000FF21204602F0CEF8034638B9032384F8BF
:1037F000323100212046FFF7FFFE0346184610BD78
:103800002DE9F04383B0064600254FF001090B2750
:10381000A8464A463946304602F0B4F804464246C5
:103820003946304602F0AEF8044364B20DF10702A7
:103830001321304602F0C8F8204340B20135EDB202
:103840009DF8073013F0070F04D0032D07D0002890
:10385000DFD006E0032D28BF6FF00B0001E06FF012
:103860000B0003B0BDE8F08338B504460D460021D7
:10387000FFF7B9FA034608B1184638BD2046FFF7EE
:1038800079FF03460028F7D129462046FFF7D8FDE7
:1038900003460028F0D100212046FFF7B1FF034680
:1038A000EAE7F8B59DF81870002940F0A9800E46A7
:1038B0001C460546142A09D0152A11D0042C00F202
:1038C0009C80DFE804F07B7977757D00002F0CBFCA
:1038D00010220122842102F055F802461046F8BD5C
:1038E0000122FF2102F04EF804460022114628462C
:1038F00002F048F8044364B20022FF21284602F097
:1039000041F8044364B201228021284602F03AF8CB
:10391000044364B202228521284602F033F80443AE
:1039200064B20422FF21284602F02CF8044364B25A
:103930000022CD21284602F025F8044364B211226A
:10394000CC21284602F01EF8044364B20722FF216E
:10395000284602F017F8044364B20022BE2128462C
:1039600002F010F8044364B20622FF21284602F058
:1039700009F8044364B20922CC21284602F002F877
:10398000044364B20022FF21284601F0FBFF0443F8
:1039900064B20122FF21284601F0F4FF044364B21F
:1039A00000221146284601F0EDFF204342B295E780
:1039B000032206E0022204E0012202E00A4600E0BF
:1039C00004220A21284601F0DDFF0246002A85D1A3
:1039D000002F0CBF33461023EF228421284602F02B
:1039E0000EF8024600287FF479AF85F8DA4000210E
:1039F0002846FFF705FF024670E76FF00A02E5E789
:103A00006FF009026AE7000070B596B004464022E4
:103A1000002106A80DF042FF0023ADF816308DF806
:103A200015308DF8143004930121204600F032FD4A
:103A300094F81421012A06D894F8131147D0002ACB
:103A400047D10C2945D905AA04A9204600F072FBEC
:103A5000034653BB94F85031002B40F0A580D4F8B6
:103A60004C11204601F0CBFB034650BB00210091D6
:103A700004230A462046FFF714FF0346002860D1BE
:103A80000122FF21204601F07DFF05460DF11602BF
:103A90008421204601F0CEFF05436DB20022FF21B4
:103AA000204601F06FFF284343B2002B7ED1BDF8C2
:103AB00016301B01C4F8D43006A92046FFF793FB4B
:103AC00003465BB1002B36D0184616B070BD2029D6
:103AD000B9D8204600F0A7F90346BAE70DF1150161
:103AE0002046FFF795F903460028EBD19DF81530E5
:103AF00084F8313104F1100506AE0FCE0FC50FCE9C
:103B00000FC50FCE0FC596E80F0085E80F000DF129
:103B100015020121204601F057FF03460028D1D1AC
:103B20009DF8153084F83031002211462046FFF709
:103B300089F90346C6E7002202212046FFF782F9F1
:103B40000346A3B9032384F832310DF10F0200219B
:103B5000204601F05AFA0346A0B916AA12F8493DC8
:103B600084F8E8300121204601F04FFA0346ABB952
:103B70009DF80F3084F8E03002AA0321204600F0BF
:103B80008DFF0346002B9FD116AA52F8503DC4F872
:103B9000E4300421204600F081FF0346002B93D13E
:103BA000029AC4F8DC208FE702495AE7002B89D13A
:103BB000ADE700BFC001002010B582B00C460DF18A
:103BC0000702132101F000FF9DF8073003F0070200
:103BD000226003F01803002B18BF6FF0050002B03D
:103BE00010BD10B582B00C4690F8DA30042B11D01D
:103BF0000DF10702142101F0E7FE034638B99DF8E4
:103C0000072012F0010F14BF012200222270184673
:103C100002B010BD6946FFF7CFFF0346009A042AA1
:103C20000CBF012200222270F1E708B500F082FAF1
:103C300008BD10B582B00C460DF10602282101F036
:103C4000F9FE024660B9BDF80630C3F30B03B3F5C5
:103C5000006F28BFA3F58053FA2103FB01F3236013
:103C6000104602B010BDF0B44FF0FF341C60D7080E
:103C70008F421DD202F007023C1920443E4602E06A
:103C80000136B14214D010F8015FB74203BF1541AD
:103C9000EDB21446002415F0010F06D16D08013471
:103CA000072CEDD815F0010FF8D004EBC6041C600A
:103CB000F0BC70478009034B53F82000003018BF58
:103CC00001207047B4020020D30802F007028B42A3
:103CD00006D201219140C25C0A43C25400207047C1
:103CE0006FF03100704708B506230A46B02101F095
:103CF0000FFE08BD08B506230A46B02101F026FED6
:103D000008BD2DE9F04F87B0019000929846109FB2
:103D1000DDF844B0129EDDF84C900596B9F1000F25
:103D20001AD08A46002505AB324639460098FFF77F
:103D30009AFF059CB4F1FF3F34D004EB0B00FFF772
:103D4000B9FF50452ED1224639464046FFF7BCFF09
:103D5000661C0135A945E6D1149B1E6041460198B9
:103D6000FFF7C1FF044608BB03A90198FFF7C2FF94
:103D70000446DFB198F800209DF80C309A420ED12D
:103D800008F1010303AA4744BB420FD013F8011BFB
:103D900012F8010F8842F7D06FF0310406E06FF09F
:103DA000310403E0149B1E606FF03104204607B01D
:103DB000BDE8F08F70B588B004460E4690F83051DB
:103DC000C022012101F0DEFD034618B103B31846FD
:103DD00008B070BD01A92046FFF746FD0346002844
:103DE000F5D10122FF21204601F0CCFD0346002839
:103DF000EDD13246B621204601F01CFE03460028D4
:103E0000E5D10022FF21204601F0BCFD0346DDE79D
:103E10002A460121204601F0B5FD03460028D6D1EF
:103E200084F83051D3E7F0B589B005460F46164601
:103E30000122FF2101F0A6FD58B3002385F82431AB
:103E400085F8253185F8263185F8273185F8283120
:103E500085F82931002E41D11C4607AB0493039706
:103E60000294B42301930623009305F5927305F59C
:103E7000957231462846FFF744FF034630B90122C8
:103E800085F8152185F8137185F81461184609B075
:103E9000F0BD00224F21284601F074FD0028CCD14E
:103EA0002C224E21284601F06DFD0028C5D10022AC
:103EB000FF21284601F066FD0028BED1B422B621BC
:103EC000284601F05FFDB8E7013404F1B400FFF7C4
:103ED000F1FE0028C1D12C2CF6D1BEE70024F4E776
:103EE00010B5044641F00102002101F04BFD0346EC
:103EF00008B1184610BD204600F069FA03460028B4
:103F0000F7D100212046FFF77BFC03460028F0D1C3
:103F100000221146204601F035FD0346E9E72DE970
:103F2000F04F83B005468846924699469DF8387012
:103F30009DF83C604FF0000B8DF807B00122FF2187
:103F400001F020FD04465A465946284601F01AFD64
:103F5000044364B25A46FF21284601F013FD04438E
:103F600064B2B8F1000F30D0F7B92EBB0122FF21A7
:103F7000284601F007FD044364B2012200212846CF
:103F800001F000FD044364B20022FF21284601F045
:103F9000F9FC9DF8073023F010030D9A13702043AD
:103FA00040B203B0BDE8F08F0C9ACB21284601F057
:103FB0000BFD044364B2D8E70DF10702EE21284659
:103FC00001F002FD044364B2D0E757B9002ECDD012
:103FD0004B468022EE21284601F011FD044364B2D5
:103FE000C4E75246CB21284601F0CCFC044364B21E
:103FF000ECE72DE9F04186B004460D461746002255
:104000008DF817201E4683B190F8308101221146A9
:10401000204601F0B7FC034650B100222A7003B9D4
:10402000EEB9184606B0BDE8F0814FF00008EDE7A4
:1040300040212046FFF754FF03460028EDD1012F11
:10404000EBD100220392012102910DF1170301939C
:10405000009513462046FFF762FF0346DFE742461E
:104060000121204601F08EFC03460028D9D184F8B6
:104070003081D6E72DE9F04186B004460D4617465B
:104080001E4683B190F8308102220121204601F0C2
:1040900079FC034650B100222A7003B9EEB91846E4
:1040A00006B0BDE8F0814FF00008EDE700212046A2
:1040B000FFF716FF03460028EDD1012FEBD10121B8
:1040C00003910022029201950DF11703009313460C
:1040D0002046FFF724FF0346DFE742460121204642
:1040E00001F050FC03460028D9D184F83081D6E78E
:1040F000F8B5044617461D4690F8306100232A465D
:10410000FFF777FF034608B11846F8BD00232A469B
:1041100039462046FFF7AEFF03460028F4D1324669
:104120000121204601F02EFC03460028ECD184F842
:104130003061E9E72DE9F04F93B0044609910A9206
:1041400000230F930E938DF835308DF83430B0F88E
:104150003C7180F8243180F8253180F8263180F8D0
:10416000273180F8283180F829310122FF2101F020
:1041700009FC0346002838D0002B54D0002B40F017
:10418000F580002112AB43F80C1D04930323039325
:104190000291B42301930623009304F5927304F56E
:1041A00095722046FFF7ADFD0346002B40F0DE8000
:1041B0000F9D0DF136012046FFF7FCFD0346002858
:1041C00040F0D480BDF83630BB4240F2D9800023A5
:1041D00084F8243184F8253184F8263184F8273195
:1041E00084F8283184F829312FE000224F2120461D
:1041F00001F0C8FB0346E0B92C224E21204601F015
:10420000C1FB03460028B9D10022FF21204601F05E
:10421000B9FB03460028C8D1B422B621204601F0DC
:10422000B1FB0346A8E700228021204601F0AAFB4B
:104230000346002B40F09E800DAA0DF1350120466B
:10424000FFF756FF034699E7013505F1B400FFF784
:1042500031FD08B92B2DF7D90FAB0493032303933A
:104260000295B42301930623009304F5927304F599
:10427000957201212046FFF744FD0346002875D1C1
:104280000F9D0DF136012046FFF794FD03460028EF
:104290006CD1BDF83630BB4240F2908001230B93C5
:1042A0004FF003089B466FE0013531462046FFF78B
:1042B0001AFD0346002859D10DF136012046FFF7BB
:1042C00079FD0346002851D1BDF83620A2EB0A0340
:1042D000002BB8BF5B42BA4223D9089A934211D847
:1042E000099AC2F800800A999DF82C0008700123F1
:1042F00084F81531136884F813310B7884F814317D
:10430000002333E010A92046FFF7EDFC0346109888
:10431000C4F82401BDF84420A4F8282133BBC846C2
:10432000DEE7D4F824011090B4F82821ADF8442039
:104330000893C1460EAB2A4606210798FFF793FC67
:104340000E9DB5F1FF3F3FD005F1B400FFF7B2FC81
:10435000584513D109F1010804F592762A46062141
:104360003046FFF7B1FC034600289DD0184613B035
:10437000BDE8F08F00220B929146CFE7C846AFE729
:1043800000230B9398469B46BDF83630BB42A7D21C
:104390005FFA8BF20B92D4F824011090B4F8282124
:1043A000ADF84420BA46DB1B002BB8BF5B42089334
:1043B0004FF0030904F595730793BBE700230B93B4
:1043C00098464FF0010BDFE76FF03103CEE770B591
:1043D00082B0054602AE002306F8013D4FF4FA64B0
:1043E00031462846FFF7FDFB024658B99DF80730D5
:1043F000012B07D0013C03D0284601F065FBEFE715
:104400006FF00602104602B070BD0246B0F1804F58
:1044100010D24FF080439B089A42FCD36BB100202E
:10442000C11891429ABF521A03EB500040089B08F2
:10443000F6D170474FF08043F1E718467047F0B56A
:1044400083B006460022832101F09CFA0446C0B9DD
:10445000002583270DF107023946304601F0B4FAF2
:1044600004469DF807303BB930B90135B5F5FA6F10
:10447000F0D16FF0060404E0B5F5FA6F28BF6FF0D5
:10448000060401228321304601F07CFA204340B229
:1044900003B0F0BD2DE9F04F91B000230C930B93C6
:1044A00090F8F070072F04D10024204611B0BDE829
:1044B000F08F0E4605460122802101F063FA044682
:1044C0000122FF21284601F05DFA044364B2002274
:1044D0001146284601F056FA044364B20622FF2131
:1044E000284601F04FFA044364B20DF13F028321E4
:1044F000284601F069FA044364B29DF83F2042F077
:1045000004028321284601F03DFA044364B20722E5
:10451000FF21284601F036FA044364B201228121CA
:10452000284601F02FFA044364B2284601F0CCFA81
:10453000044364B201228021284601F023FA044397
:1045400064B216F0010A5BD017F0010F03D000230C
:104550000293019357E06B229421284601F012FA4E
:1045600080462846FFF76BFF48EA0000044364B228
:104570000EAA9021284601F07FFA044364B20E9BF4
:10458000C3F306220192C3F3C03302932422942181
:10459000284601F0F7F9044364B22846FFF74FFFBD
:1045A000044364B20EAA9021284601F065FA044340
:1045B00064B20E9B1A0E8DF810201A0C8DF8112083
:1045C0001A0A8DF812208DF81330252294212846DE
:1045D00001F0D8F9044364B22846FFF730FF0443E2
:1045E00064B20EAA9021284601F046FA044364B250
:1045F0000E9B1A0E8DF814201B0C8DF8153002E05E
:1046000000230293019316F0020902D017F0020F63
:104610000CD016F0040800F0678117F0040F00F0CA
:10462000DE804FF0000BCDF80CB061E10222942146
:10463000284601F0A7F980462846FFF700FF48EA20
:104640000000044364B20DF137029021284601F0C6
:10465000BBF9044364B27B229421284601F092F90D
:10466000044364B22846FFF7EAFE044364B20DF146
:1046700036029021284601F0A7F9044364B277225C
:104680009421284601F07EF9044364B22846FFF7DE
:10469000D6FE044364B20EAA9021284601F0ECF93C
:1046A000044364B20E9B5A0E8DF81820C3F3864261
:1046B0008DF81920C3F3C6228DF81A20C3F3061211
:1046C0008DF81B20DB0003F078038DF83F30782253
:1046D0009421284601F056F9044364B22846FFF7B6
:1046E000AEFE044364B20EAA9021284601F0C4F93C
:1046F000044364B20E9B9DF83F2002EB53728DF889
:104700001C20C3F386528DF81D20C3F3C6328DF8EA
:104710001E20C3F306228DF81F20C3F346028DF836
:1047200020209B0103F040038DF83F307922942133
:10473000284601F027F9044364B22846FFF77FFEBC
:10474000044364B20EAA9021284601F095F904436F
:1047500064B20E9B9DF83F2002EB93628DF82120FE
:10476000C3F3C6428DF82220C3F306328DF823200E
:10477000C3F346128DF824209B0003F07C038DF8D0
:104780003F307A229421284601F0FCF8044364B2B9
:104790002846FFF754FE044364B20EAA902128462F
:1047A00001F06AF9044364B20E9B9DF83F2002EBCE
:1047B00093728DF82520C3F3C6528DF82620C3F3DB
:1047C00006428DF82720C3F346228DF82820C3F334
:1047D00086038DF8293000238DF82A3019E77B22D3
:1047E0009421284601F0CEF883462846FFF727FE9D
:1047F0004BEA0000044364B20CAA9021284601F061
:104800003BF9044364B27C229421284601F0BAF8B3
:10481000044364B22846FFF712FE044364B20BAAB5
:104820009021284601F028F9044364B273229421B0
:10483000284601F0A7F8044364B22846FFF7FFFDBD
:10484000044364B20EAA9021284601F015F90443EE
:1048500064B20E9B1B021FFA83FB7422942128462C
:1048600001F090F8044364B22846FFF7E8FD0443E2
:1048700064B20EAA9021284601F0FEF8044364B207
:104880009DF83B3043EA0B0B75229421284601F03A
:1048900079F8044364B22846FFF7D1FD044364B2BB
:1048A0000EAA9021284601F0E7F8044364B20E9B5B
:1048B0001B029BB2039376229421284601F062F8F2
:1048C000044364B22846FFF7BAFD044364B20EAA5B
:1048D0009021284601F0D0F8044364B29DF83B30A3
:1048E000039A1343039303E04FF0000BCDF80CB091
:1048F00000228121284601F045F8044364B20622D3
:10490000FF21284601F03EF8044364B20DF13F0256
:104910008321284601F058F8044364B29DF83F20F3
:1049200002F0FB028321284601F02CF8044364B214
:104930000122FF21284601F025F8044364B2012238
:104940000021284601F01EF8044364B20022FF2132
:10495000284601F017F8044364B20022802128465B
:1049600001F010F8044364B2002C7FF49EADBAF15C
:10497000000F15D017F0010F12D19DF8043085F803
:1049800013319DF8083085F8143104AA05F59573A4
:1049900005F5987012F8011B03F8011B9842F9D134
:1049A000B9F1000F02D017F0020F20D0B8F1000FBC
:1049B00019D017F0040F16D10C9BC5F818310B9BBA
:1049C000C5F81C314FEA4B23C5F82031039BE3B1F6
:1049D000A3F5C85B4FF47A7303FB0BFB4FEA1B1381
:1049E0005B421BB2EB603E4385F8F0605DE59DF8ED
:1049F000373085F8F1309DF8363085F8F23006A969
:104A000005F1F3000CF0BEFFD0E70023EAE788B120
:104A1000013830F0FF030BD00023400801339BB274
:104A200030F0FF02F9D1C0B200EB032080B2704732
:104A30000023F8E700207047C3B2000A03FA00F031
:104A400001307047084B03FB02F202F5FA72074887
:104A5000A0FB0232D3094FF47A7000FB01309209B7
:104A6000B0FBF2F0704700BF002F3A00D34D621048
:104A7000084B03FB02F303F5FA73074AA2FB030397
:104A80009B0901FB03F000F5FA70A2FB00308009DE
:104A9000704700BF002F3A00D34D6210F0B585B0CB
:104AA0000446164600238DF80E30ADF80C3002296E
:104AB00009D9032921D0042942D0002005463060BD
:104AC000284605B0F0BD0DF10F021946FEF7B6F904
:104AD000054650B19DF80E00FFF7AEFF9DF80F2080
:104AE00081B22046FFF7C4FFE9E70DF10E0246212F
:104AF000204600F069FF0546ECE70DF10F020021AA
:104B0000FEF79CF9054608B10020D8E70DF10F0229
:104B100000212046FEF792F9054650B1BDF80C0081
:104B2000FFF78AFF9DF80F2081B22046FFF7A0FF14
:104B3000C5E703AA5121204600F07CFF0546EDE7BA
:104B400001A9FEF7F8F99DF80730C3B10DF10F0286
:104B500000212046FEF772F9054610B100273946BC
:104B600017E003AA5121204600F064FF0546BDF876
:104B70000C00FFF761FF87B215B1002109E00027A3
:104B80000DF10F0201212046FEF758F9054640B10C
:104B90000021C91B9DF80F2089B22046FFF768FF4E
:104BA0008DE70DF10A027121204600F043FF054612
:104BB000BDF80A00FFF740FF81B2EAE7F0B585B023
:104BC00004461646022916D9032932D004297BD17E
:104BD00001A9FEF7B0F99DF80730002B56D00DF172
:104BE0000F0200212046FEF729F90546002840D093
:104BF000284605B0F0BD0DF10F020021FEF71EF9A9
:104C000005460028F4D19DF80F2031462046FFF7D5
:104C100019FF83B2B3F5807F9ABF00F1FF32D2B2A1
:104C2000FF22A4F8D8204621204600F0ABFE05461E
:104C3000DEE70DF10F020021FEF700F905469DF8B1
:104C40000F2031462046FFF7FDFE80B2FFF7DFFE62
:104C5000ADF80C00A4F8D800002DC9D102465121AE
:104C6000204600F09FFE05460028C1D1C4F8E4604C
:104C7000BEE703AA5121204600F0DCFE0546BDF840
:104C80000C00FFF7D9FE87B20DB1B1E700270DF197
:104C90000F0201212046FEF7D1F805460028A7D1D2
:104CA0009DF80F2031462046FFF7CCFE3844FFF731
:104CB000AEFE02467121204600F074FE0546002833
:104CC00096D1C4F8DC6093E76FF0030590E770B508
:104CD00084B000238DF8033012F0010F40F06281A0
:104CE00014460546002940F06681A2F10C03DBB2B0
:104CF000062B00F25A810C2A25D00E2A33D0102A16
:104D00003CD0122A45D05608013EF6B202AA032131
:104D10002846FFF7C3FE0346002800F0118185F8FE
:104D2000E8406BB969692846FEF780F803463BB94D
:104D3000012300220DF103012846FFF79BF90346EA
:104D4000184604B070BD1822572100F01BFE08223F
:104D50005621284600F016FE0346002BF0D16608C7
:104D6000013EF6B2D2E73022572100F00BFE0822B6
:104D70005621284600F006FE0346EEE74022572162
:104D800000F000FE08225621284600F0FBFD0346F5
:104D9000E3E75022572100F0F5FD0822562128466E
:104DA00000F0F0FD0346D8E710224821284600F025
:104DB000E9FD08224721284600F0E4FD06460222CC
:104DC0003221284600F0DEFD064376B20C22302167
:104DD000284600F0D7FD064376B20122FF2128467F
:104DE00000F0D0FD064376B230221146284600F08E
:104DF000C9FD064376B20022FF21284600F0C2FD1D
:104E0000304343B2002B9BD16608013EF6B203AAA1
:104E100004212846FFF742FE0346002800F0B28036
:104E200085F8E0407DE728224821284600F0AAFDC9
:104E300008224721284600F0A5FD0646032232211C
:104E4000284600F09FFD064376B20922302128460D
:104E500000F098FD064376B20122FF21284600F0BB
:104E600091FD064376B220223021284600F08AFDCB
:104E7000064376B20022FF21284600F083FD30432E
:104E800043B2BFE738224821284600F07BFD0822C4
:104E90004721284600F076FD0646032232212846A7
:104EA00000F070FD064376B208223021284600F05B
:104EB00069FD064376B20122FF21284600F062FD1B
:104EC000064376B220223021284600F05BFD0643DF
:104ED00076B20022FF21284600F054FD304343B251
:104EE00090E748221146284600F04CFD0822472151
:104EF000284600F047FD064603223221284600F0EE
:104F000041FD064376B207223021284600F03AFDE3
:104F1000064376B20122FF21284600F033FD064306
:104F200076B220223021284600F02CFD064376B2CE
:104F30000022FF21284600F025FD304343B261E7FF
:104F400001AA02212846FFF7A9FD034600287FF4A5
:104F5000E6AE32465021284600F014FD03460028F4
:104F60007FF4DDAE029A03212846FFF727FE0346B1
:104F700000287FF4D4AE019A02212846FFF71EFED6
:104F80000346CCE632467021284600F0FBFC03467F
:104F900000287FF445AF039A04212846FFF70EFE50
:104FA00003463DE76FF00303CAE66FF00303C7E66D
:104FB0006FF00303C4E601291BD1A4F10803DBB29F
:104FC000062BF5D8082C3FF4EFAE0A2C3FF42BAF9C
:104FD0000C2C3FF457AF0E2C83D06608013EF6B27E
:104FE00000293FF493AE01293FF411AF6FF00303A2
:104FF000A6E65608013EF6B200293FF487AE012925
:105000003FF405AF6FF0030391E610B582B014468C
:1050100021B101290FD06FF003000AE00DF1070262
:10502000502100F0D1FC20B99DF8073001335B001E
:10503000237002B010BD0DF10702702100F0C4FC16
:10504000F1E7F0B585B04FF4FA63019300230093C4
:1050500044F61F63994255D90E46044602A9FDF74E
:105060006AFF0546002851D1A6F636379DF808306C
:105070002BB99DF8093013B99DF80A30CBB101AABC
:1050800002212046FFF70AFD00283ED19DF8083096
:105090002BB1019B03F24E239F423AD9FF1A9DF890
:1050A0000A30ABB1019B03F2B2235B009F4233D9BC
:1050B000FF1A9DF80B30B3B99DF80C3033B3A7F24B
:1050C000262204212046FFF779FD054666611DE092
:1050D0009DF80930002BECD0019B03F525739F420E
:1050E0001DD9FF1AE5E76A4603212046FFF7D6FCE3
:1050F000009B03F52573BB4214D208B1054605E0B9
:10510000FF1AD9E76FF0030500E00546284605B011
:10511000F0BD6FF00305F9E76FF00305F6E76FF0F8
:105120000305F3E76FF00305F0E770B586B00646B8
:105130000C464FF4FA6302930023019340F6363392
:105140000B6004A9FDF7F7FE054650BB9DF8103033
:105150002BB99DF8113013B99DF81230CBB102AACA
:1051600002213046FFF79AFC002846D19DF8103006
:105170002BB1029B03F24E222368134423609DF857
:1051800012308BB1029B03F2B222236803EB42037D
:1051900023609DF8133093B99DF81430F3B9236858
:1051A0007361284606B070BD9DF81130002BF0D019
:1051B000029B03F52572236813442360E9E701AAE3
:1051C00003213046FFF76AFC019B03F52572236833
:1051D000134423600028DFD00546E2E703AA042138
:1051E0003046FFF75BFC039B03F22622236813443F
:1051F00023600028D3D00546D3E70546D1E7F0B5B4
:1052000083B006460D46002420466FF003073EE0BB
:10521000A21C6B5C032B46D8DFE803F0020B141DC5
:105220002B19DB780434AA5C03EB0223A6F8343193
:105230002DE02B19DB780434AA5C03EB0223A6F8DB
:10524000363124E02B19DB780434AA5C03EB02230B
:10525000A6F838311BE02B19DB780434AA5C03EB89
:105260000223A6F83C3112E0695C02345BB10132E2
:105270002A4401A800EB030E12F801CF00F801CB7D
:105280007045F9D11C4401AA304600F041FB22468A
:105290002B5D5BB150B9611CFF2BB9D0042BE3D956
:1052A0000C463846F3E714463846F0E703B0F0BD45
:1052B00070B582B005460E461446002313600DF10A
:1052C0000701FDF799FE024648B99DF8073033B152
:1052D000B18A2B6A03FB01F380331B0A236010465B
:1052E00002B070BD10B582B01446CB68136001AA3D
:1052F000FFF7DEFF024618B9236801990B442360CB
:10530000104602B010BD0000F8B5079E089FB0F827
:105310005441D0F8585105FB04F580352D0A05FBA2
:1053200004F510465AB1890201EB5201B1FBF2F0CB
:1053300000EB400000FB00F000F50040000C069C74
:1053400004FB03F404F50044240C04FB04F406F508
:1053500000431B0C0333244AA2FB03239B08C3EB2B
:10536000C303B3F5803F3DD2F31C1F4EA6FB0323BE
:105370009B08C3EBC30303F500431B0C03FB03F3C0
:1053800004EB57041C44B4FBF7F4A4037F34640813
:10539000164BA3FB0434A40904FB00F404F5FA74CF
:1053A000134EA6FB0434A409240104F5FA74A6FBE9
:1053B0000436B60905F120008009FFF726F80746F4
:1053C00036B10B4BA3FB043405EBD414B4FBF6F657
:1053D0003046FFF71AF8B84228BF3846099B1860D4
:1053E0000020F8BD034BCBE7ABAAAAAA09040281AF
:1053F000D34D62100000F0FF2DE9F04F8DB0044650
:105400000F4604920593036A0B93D1F810B0CD6850
:1054100006950AAAFFF766FF0BAA39462046FFF752
:1054200047FF8046002840F0F280D4F8DC10079156
:1054300094F8E06032462046FFF704FB0546D4F8B6
:10544000E410089194F8E8202046FFF7FBFA082EB4
:1054500014BF032202220A9B4FF47A7606FB03F65E
:1054600006F500460B990991803323F0FF0ACDF829
:1054700028A05FEA164900F0CE800544ED0202FB49
:1054800005F202F5FA726B49A1FB0202920940F2A1
:10549000776808FB02F808F5FA78A1FB08284FEABC
:1054A00098181D0A08FB05F580352D0A002D08BF48
:1054B00001254FF47A7303FB0BFB4FEA1B4B4FEABA
:1054C0000B4BBBFBF9FB5C4B9B4528BF9B464FF44A
:1054D000167909FB0BF905EB45008000FEF795FFF7
:1054E0004FEA400B39893A7E002A40F09D80534BA9
:1054F00003FB01F3524AA2FB03239B0A360C36043A
:1055000006F5FA764FF47A72099902FB01F2B2F5C8
:10551000481F28BF4FF44812A6EB42024549A1FBA1
:10552000020292091202A1FB0616B609B2FBF6F2BC
:105530001202C2F5803203FB02F707F500473F0C69
:1055400007F580377F0807FB07F7BF0B4FF448705C
:1055500000FB07F000F50040000C09F500431B0CB0
:1055600003FB03F300FB0030FEF74FFF0604323667
:105570003448A0FB06367609B6FBFBF640F6B53399
:1055800041F2883B03FB06B62F4BA3FB0636760B96
:10559000B6F5704F28BF4FF47046079B089A134426
:1055A00003F5FA73DFF88CB0ABFB0323D80900F5E1
:1055B000C8109B09B0FBF3F0FEF727FF000200F5CF
:1055C000FA70ABFB0030800900FB00F006FB060020
:1055D000FEF71BFF5DB34FF47A7303FB00F01B4B28
:1055E000984228BF1846049B1860C4F84001059BE8
:1055F0000393CDF80880CDF804904FF448730093DE
:105600003B46069A51462046FFF77EFE80464046BE
:105610000DB0BDE8F08F0D4B049A1360C4F8403113
:105620000023059A1360F2E74FF480378EE70748AE
:10563000D9E700BFD34D6210666666009A990600EE
:10564000517BC6371F85EB515917B7D1AE878F02F3
:105650002DE9F04F8BB0044601929B4600238DF854
:1056600027308DF826308DF825308DF82430ADF8B0
:10567000123003934FEAD10A0AF00F094FF2A10545
:1056800025FA09F505F001050DF127021946FDF788
:1056900018FD03469DF82780B8F1000F3BD0E8B114
:1056A0004FF000089DF82570002F54D0002B3FD0FC
:1056B0009DF82460002E40F0C5803746002B40F056
:1056C000C380002D40F08E8009F1FF33DBB2022B46
:1056D00000F28C800523159A1370BBE003AB08AA77
:1056E00014992046FFF788FE0346F0B9039B149AED
:1056F000538107AA00212046FDF71EFD0346079AA5
:105700003AB108998A422CBF4FF000084FF00108C7
:1057100001E04FF00008002BC4D10DF12502022159
:105720002046FDF7CEFC0346BCE74FF00008B9E782
:1057300006AA02212046FDF7FFFC034638B3BDF858
:1057400012707A02C4F84821069F002F37D0974282
:105750002CBF00270127002B33D09DF82460002E9A
:1057600072D0002B6CD1BBF1000F36D0019B1E0212
:10577000B6FBFBFB05AA03212046FDF7DDFC034633
:10578000059E6EB35E4594BF0026012696E7012272
:10579000FF21204600F0F6F803460028CFD10DF196
:1057A0001202B621204600F045F903460028C6D172
:1057B0000022FF21204600F0E5F80346BFE700275E
:1057C000C9E709AA03212046FDF77BFC03469DF8A3
:1057D0002460002E3FF472AFC3E74FF0000BC9E71F
:1057E00000266BE7FF23159A137033E0B9F1060F1B
:1057F00016D0B9F1090F13D00AF00D0ABAF1080F4B
:1058000012D0012F10D0B9F1040F11D0012E0FD0FA
:10581000B8F1010F10D00023159A1370464616E018
:105820000423159A137015E00323159A137011E0E1
:105830000223159A13700DE00123159A137009E0E5
:10584000002601E000273E46159B1B7813B9002374
:10585000149A53810DF1260201212046FDF731FCF7
:10586000024640BB9DF827304BB3B8F1010F14BF7F
:105870004FF000084FF0010884F82E80B9F1040FB2
:105880001DBF9DF82630B3FA83F35B09012384F82A
:105890002F309DF82530ABB1012F14BF0027012711
:1058A00084F830709DF8243073B1012E14BF0026A7
:1058B000012684F8316010460BB0BDE8F08F4FF040
:1058C0000108D9E70127EBE70126F2E710B582B01E
:1058D00090F86041D0F85C0102F10A03009393B2A2
:1058E0000A462146FBF7CCFD02B010BD10B582B0D0
:1058F00090F86041D0F85C0102F10A03009393B282
:105900000A4644F00101FBF7BDFE02B010BD0000E5
:105910003F2B16D8F8B51E46154604460A4F3846A2
:1059200000F8011B1A4629460BF0ADFF721C3946E0
:105930002046FFF7CBFF00280CBF00206FF01300BC
:10594000F8BD6FF003007047F42F012070B582B0EE
:10595000044615461E4602AB03F8011D01221946F6
:10596000FFF7B4FF58B9324629462046FFF7BEFF7D
:1059700000280CBF00206FF0130002B070BD6FF064
:105980001300FAE708B5064B19705A70022219463F
:10599000FFF79CFF00280CBF00206FF0130008BD2C
:1059A000F42F012008B5074B1970110A59709A702D
:1059B00003221946FFF78AFF00280CBF00206FF072
:1059C000130008BDF42F012030B583B004461546FE
:1059D00002AB03F8011D01221946FFF777FF58B902
:1059E000012229462046FFF781FF00280CBF002036
:1059F0006FF0130003B030BD6FF01300FAE7F0B59D
:105A000083B006460F4615461C460DF10702FFF708
:105A1000DBFF034610B1184603B0F0BD9DF8072028
:105A20002A4022438DF8072039463046FFF7AAFF67
:105A30000346F0E730B583B00446154602AB03F8E1
:105A4000011D01221946FFF741FF68B902220949E9
:105A50002046FFF74BFF50B9064A1178537803EB05
:105A600001232B8003B030BD6FF01300FAE76FF015
:105A70001300F7E7F42F012030B583B00546144634
:105A800002AB03F8011D01221946FFF71FFF98B969
:105A900004220C492846FFF729FF80B9094A1178EA
:105AA00053781B0403EB0163D1780B44927803EB2A
:105AB0000223236003B030BD6FF01300FAE76FF0EC
:105AC0001300F7E7F42F012008B50220FAF784FD50
:105AD000002008BD08B500F069FF002008BD08B52A
